:020000041000EA
:1000000000B5324B212058609868022188439860DF
:10001000D860186158612E4B002199600421596104
:100020000121F02299502B49196001219960352056
:1000300000F044F80222904214D00621196600F024
:1000400034F8196E01211966002018661A6600F04E
:100050002CF8196E196E196E052000F02FF8012189
:100060000842F9D1002199601B49196000215960AB
:100070001A491B48016001219960EB211966A021F2
:10008000196600F012F800219960164914480160C1
:100090000121996001BC002800D000471248134993
:1000A000086003C880F30888084703B5996A0420EC
:1000B0000142FBD001200142F8D103BD02B5186610
:1000C0001866FFF7F2FF186E186E02BD00000240BE
:1000D000000000180000070000035F00212200005C
:1000E000F4000018222000A00001001008ED00E03C
:1000F000000000000000000000000000070B8FD58A
:1001000000200420F7010010CB010010CD010010E9
:10011000C9010010C9010010C9010010C901001077
:10012000C9010010C9010010C9010010CF01001061
:10013000C9010010C9010010D1010010D301001045
:10014000C1010010C1010010C1010010C101001067
:10015000C1010010C1010010C1010010C101001057
:10016000C1010010C1010010C1010010C101001047
:10017000C1010010C1010010C1010010C101001037
:10018000C1010010C1010010C1010010C101001027
:10019000C1010010C1010010C1010010C101001017
:1001A000C1010010C1010010C1010010C101001007
:1001B000C1010010C1010010C1010010C1010010F7
:1001C000EFF30580103800BE00BE00BE00BE00BECA
:1001D00000BE00BEF2EB8871CC170010EC170010C7
:1001E0003802001090A31AE71E481F49086006C88D
:1001F00081F3088810471D480068002801D019487D
:10020000F3E70DA40ECC002902D000F012F8F9E7B4
:100210001749184A002000E001C19142FCD116495B
:100220008847164988471649884700BEFDE701C937
:1002300001C29A42FBD37047EC170010C0000020A7
:10024000E801002014190010000004200000042020
:1002500014190010001004200010042000000000F9
:10026000704700000000000008ED00E0000000D032
:10027000E8010020D40500202D13001021030010F8
:1002800025130010F8B5C0460448054B10B583424D
:1002900003D0044B002B00D0984710BDE80100208C
:1002A000E80100200000000006480749091A8B10E9
:1002B000C90FC91810B5491003D0044B002B00D04A
:1002C000984710BDE8010020E80100200000000070
:1002D00010B5074C2378002B09D1FFF7D5FF054B4C
:1002E000002B02D0044800E000BF0123237010BDA2
:1002F0006805002000000000D8160010054B10B55E
:10030000002B03D00449054800E000BFFFF7CCFFF5
:1003100010BDC046000000006C050020D81600107B
:1003200010B501F0FFF8082000F008F8D023802273
:100330001B0652005A625A619A61FCE70123D022DF
:100340008340120693629361094A83009A181168E8
:100350004022514080320A400649C0008C46634426
:100360001A60054B9C460523604443607047C046B5
:1003700004C0014004D00140004001400FB400B56A
:10038000084883B001F020F9049B002B07D005A991
:100390001800019100F0ACFF034801F015F90120AD
:1003A00000F0BEFFD8160010E816001070B5EFF38D
:1003B000108C72B60D4D2B68002BFCD0BFF35F8FF5
:1003C0000724CB08C618C05C01230C40A3401C00C6
:1003D0000440034207D118433070BFF35F8F2C6095
:1003E0008CF3108870BD1000FFF7C8FF2C0100D0FF
:1003F000044A1078431CDBB2172B00D9102313706A
:100400007047C046980100200021044B044ABFF306
:100410005F8F02C39342FAD17047C046000100D0FB
:10042000800100D0054B064A1360064A13605360F2
:100430009360D360136153619361704780808080C3
:1004400000E400E004E400E01F2318401E3B83406A
:10045000002905D0C021044A490053501360704759
:10046000802201498B50FAE700E100E070B50D00F1
:10047000EFF3108672B60F4A1368002BFCD0BFF35F
:100480005F8F0D4B10309B6884001B590B4A9342C1
:1004900003D09D4201D000F00DFD074B9B681D511C
:1004A000BFF35F8FBFF35F8F0022024B1A6086F3AA
:1004B000108870BD240100D000ED00E0C1010010E3
:1004C000024B9C4661448900016070474000003443
:1004D000F8B5134D134E2C00FF27B5421ED22368EA
:1004E000002B0FD0FFF784FF01002800FFF7E8FF83
:1004F000A780BFF35F8F0834B4420FD22368250072
:10050000002BEFD1FFF774FF01002800FFF7D8FFA1
:100510002771BFF35F8F0834B442EFD3F8BDC046F4
:10052000E0010020E80100200A4B1968EFF3108079
:1005300072B60A68002AFCD0BFF35F8F1B68BFF356
:100540005F8F00221A6080F3108840BF00200021D6
:100550007047C046D0050020F0B5DE4657464E46EF
:100560004546E0B585B0EFF3058203231340B64A54
:100570009900575801229A4088469346B34B1A6017
:10058000B34B02935B46B34843630823FE5E002EE1
:1005900035DABB881BB2002B00DBA8E0BB79002B4F
:1005A00000D0E9E00823F85E00281EDB43007A69EA
:1005B0001B18DB00D3189D68DC686B1C00D108E1B8
:1005C000A44801004144826A0B69AE1A9B1A9E42FC
:1005D00013D35A46036A1A420FD09E4800F0C4FA59
:1005E0008C4202DCCED18542CCD940BF05B0F0BCF4
:1005F000BB46B246A946A046F0BD0D61EDE77A695B
:10060000730091469B19DB0099444B469C68DD685A
:1006100000F0AAFA8D42BCDC00D1FEE0002D00DA29
:10062000E3E04B46029A1B69934200D1D5E04A466B
:100630005288494694460822B85E624600044969D9
:1006400010439847009001910099019A0B00100007
:10065000134300D1C9E013000A00002800DBE0E0EA
:1006600020002900801A99414B469860D9600022E9
:100670009A5E002A00DA8CE753009C187D69E4003A
:100680002C190093A368E4689A468C4200DD80E749
:1006900002D1834200D97CE708239C46BC443A81BE
:1006A00003976746009BB4463E000EE08C4200D1A3
:1006B000C5E01E000023F25E002A0BDB53009C18ED
:1006C000E4002C19A768E468BA469B18DB00EB1815
:1006D0008C42EBDD330066469C464B461A806346EF
:1006E000039F1E80BB881BB2002B00DA56E73A69D5
:1006F000EFF3108172B61368002BFCD0BFF35F8F4D
:100700000123BE885B42BB8036B23B69BFF35F8F7B
:1007100000221A6081F31088002E00DA3EE73B00C9
:1007200008333A0099467D6973009B19DB00EB188A
:100730009968DC688C460820115E4846002910DB69
:10074000009306E0A34240D00023F95E3800002960
:1007500006DB4F007F18FF00EF19FB68A342F1DDB5
:10076000009B068000201E5E1980002EDCDA170038
:10077000BB79002B00D115E70023BB713D00082396
:10078000F95E08354B1C00D12FE77C690800A446B0
:1007900003E035004B1C00D106E74B005B180A0054
:1007A0006146DB00CE18C95E73881BB2002BF0DAFD
:1007B00001235B42DC17B360F4608242EAD02980F7
:1007C0003B89100033803A81E4E7BB686345BBD9BD
:1007D000C6E7631C00D0F3E6FFE64B465B699A462A
:1007E0001B6950469847002823D14B461B883A691D
:1007F0003B81EFF3108372B611680029FCD0BFF380
:100800005F8F49467A880A803A697E80BFF35F8F9E
:100810000021116083F31088BBE6844200D8FDE616
:10082000B7E60C4800F0A0F9009B019CC01861419C
:100830001AE753461A685B680092019304E7824501
:1008400000D836E746E7C046BC0500203C700540AE
:10085000590500100040054070B52E4C2569002D4B
:1008600004D00A212C48FFF72BFE70BD2B4E03212C
:10087000300000F06FF9E660FFF7BAFD284B032265
:100880009C46D02322701B061B6801216370254BF8
:100890006044A3600F2380002061022063806369AD
:1008A0004942A18019800231198647311D8358526F
:1008B00018315A5275325C399952183201319952B5
:1008C00018320131995218320131995208351832D3
:1008D0009D52023118329952183201319952183210
:1008E000013199521832013199521832013199521D
:1008F0001832013199520C4B0C49DC6001303562E1
:10090000FFF7B4FD01210320FFF79EFD084B1D609A
:10091000A7E7C0469C010020D0050020004005400C
:1009200040000034FFFF1000BC05002059050010F6
:100930003860054070B501000469EFF3108C72B6A1
:1009400020680028FCD0BFF35F8F02200D5E4C6949
:1009500068004019C0002418002D37DB208848802B
:100960000869BFF35F8F002606608CF31088E36090
:1009700063880498013320615B0405985B0CA260D6
:1009800060611A1C002B1FD093B2280462801843A8
:100990000A69EFF3108C72B61368002BFCD0BFF31A
:1009A0005F8F8B8823808D800B69BFF35F8F002260
:1009B0001A608CF310880B7801329A40CB68084992
:1009C0008C4663441A6070BD0122DDE70B69BFF3FA
:1009D0005F8F00221A608CF3108801204042F2E7FA
:1009E0003C20000010B543890A1493421ADD5300DD
:1009F0009B184269DB00D3180469EFF3108C72B6C0
:100A00002268002AFCD0BFF35F8F5A88090494B291
:100A1000090C8A4208D00369BFF35F8F00221A6075
:100A20008CF31088002010BD8022120214435C80D9
:100A3000012302698371BFF35F8F002111608CF382
:100A40001088044902788C469340C26801206244B1
:100A50001360E8E73C200000F0B5CE46474680B57D
:100A600004000D0083B0EFF30587002F0DD0364A48
:100A70000020536A8B4203D3926A0130A24250D3C2
:100A800003B0C0BCB946B046F0BD304B9846DB68F9
:100A90009946434648461E7800F066F80B004946E2
:100AA00002000436B600715820008E1A2900801A00
:100AB00099418F4211DC0ED020BF234A0020536A97
:100AC000AB42DDD3926A0130A242D9D2EB1A5A1E50
:100AD0009341D8B2D4E78642EED900F04DF8220017
:100AE0002B00121A8B41002B20DB00230193184BA3
:100AF0002200009340462B00FFF71CFF011E15DD6E
:100B0000114B2E005A6A95421CD89B6AA34217D3F8
:100B10004046FFF767FF0C4A0020536A9E42AFD859
:100B2000D0E75B1A5A1E9341D8B2A9E7064A0020C3
:100B3000536AAB42A4D3926A0120A242A0D2C5E775
:100B40009542E5D120BFE3E7004005409C0100202D
:100B50002905001010B5024A0248FFF727FC10BD16
:100B6000EC160010840500200300416A0A00986A10
:100B7000596A8A42FAD17047034B596A0A00986A47
:100B8000596A9142FAD1704700400540F8B5DE46F7
:100B90004E4657464546E0B58B4605000A99180073
:100BA000160000F0B9FA0A9B6C001F02324B641960
:100BB0009C46A4006444636881469F4200D96760F4
:100BC0002B1FDBB29846012B30D9C02380229B011A
:100BD000E31812011A60294BAD0059599A460029B1
:100BE0001BD17301E026226853401E4080234246F9
:100BF0005B01E3181E60012A30D9802380229B010B
:100C0000E31812011A6053464A4667605A51F0BC15
:100C1000BB46B246A946A046F8BD586900F07CFA2A
:100C2000013043001B18033BFDD2DAE75B46012B82
:100C3000CBD1C02303229B01E3181A60023AA368B8
:100C40001A42FCD07301E0262268AD0053401E40DA
:100C500080230A4A5B019246E3181E605A462168C7
:100C6000514003220A401A6001225B469A40A36861
:100C70001A42FCD0C1E7C046008000408805002031
:100C8000F0B546464F46D646C0B51F00344B44002B
:100C90009C462418A4006444636888461600FF2B11
:100CA00002D880235B006360031FDBB29A46012BEE
:100CB00030D9C02380229B01E31812011A60294B0E
:100CC00085005959994600291BD17301E0262268F5
:100CD00053401E40802352465B01E3181E60012AE8
:100CE00030D9802380229B01E31812011A608023EF
:100CF0005B0063604B465F51E0BCBA46B146A84614
:100D0000F0BD586900F008FA013043001B18033B9E
:100D1000FDD2DAE74346012BCBD1C02303229B014E
:100D2000E3181A60023AA3681A42FCD07301E02665
:100D30002268850053401E4080230A4A5B01914689
:100D4000E3181E6042462168514003220A401A609F
:100D5000012342469340A2681342FCD0C1E7C0463B
:100D60000080004088050020014B8000C05870477B
:100D700088050020F8B5040020481D0017000E006B
:100D800000F0CAF90100380000F0C6F9069B2904FA
:100D90001B0319432368002B1EDB194B194DE21866
:100DA00053425A4180235B019C461203164B624416
:100DB0001A60164B1A6017002B689F43FBD1144B27
:100DC0002660E2182123A06013602368002BFCDA60
:100DD0000823E1601360F8BD3F2322681340B3424B
:100DE000DBD1A3681B051B0D8342D6D1EE22E3683D
:100DF000D20213408B42D0D1EDE7C046001BB700B2
:100E00000040FDBF08C0004000E0004000F000408E
:100E1000043000008023024A9B000B43D3627047DA
:100E200000800540142310B50100188804331B8886
:100E3000984710BD162310B50100188802331B888F
:100E4000984710BDF8B54746CE4680B50F1E19D05D
:100E500014239946043304000025012698464B4686
:100E60001888434621681B88984701C4431E98414F
:100E7000013540420640AF42F1D13000C0BCB94616
:100E8000B046F8BD0126F8E7AA23064A1B01136005
:100E90008D235B00D3600449044B19605368002B19
:100EA000FCDA70470040024000B0FA0000600240E7
:100EB0007047C04610B50148FFF760FA10170010E0
:100EC00070B5074D074EB54209D20024013E761B8E
:100ED000B60808CD984723000134B342F9D170BD5C
:100EE00098160010D4160010054B064A06491A60E1
:100EF000064A074B1A6010000B689843FBD17047F5
:100F000000E00040BFCDFBFE08C00040FE7F3C007B
:100F100000F00040044BDB6C002B03D18022034B1C
:100F2000D2021A607047C046000011504C20115088
:100F3000044A054B1A60054A1368DB018033FBD174
:100F40007047C046FFFFFF0100F0004008C00040AE
:100F50004022034B9A675A671A67DA667047C046A1
:100F600000F0014010B5FFF74FFA10BDF8B52B495E
:100F70002B4C2C4D641AA6103200302E00D9302292
:100F80002800920000F0A6F9BC2C3ED8731C180073
:100F90000127254A302B3BD92F212C196407E40F58
:100FA000891B052917D9302B15D8002C33D0B30055
:100FB000EA503F1B33199B007908EB18C900C91888
:100FC0001A605A6008338B42FAD101233B421CD08D
:100FD0009F433E18731CB1006A50302B15D09B0004
:100FE000EA50B31C2E2E10D09B00EA50F31C2D2E7D
:100FF0000BD09B00EA50331D2C2E06D09B00EA50EC
:10100000731D2B2E01D09B00EA50084B9D60F8BD4C
:101010002F37BF1BC0E73000CBE7C04600010010F0
:10102000C001001000000020C101001000ED00E030
:10103000002310B5294C82B0A367FFF725FF0122DA
:10104000274B1A60636C012BFCD10322254B1A60DD
:10105000224A936B012BFCD1013300930121224AD8
:1010600022480433FFF786FE052301210093204A1E
:101070002048FFF77FFE0022022104201E4BFFF7CD
:10108000FFFD0022012105201C4BFFF7F9FD002286
:10109000002107201A4BFFF7F3FD00220021082052
:1010A000174BFFF7EDFD8023DB00009300220021AA
:1010B0000920134BFFF76AFD0022104B0021062088
:1010C000FFF7DEFD0420FFF74FFE0E4900F024F885
:1010D00001000020FFF79EFE02B010BD008000401E
:1010E0003CB0004030B00040002F68590080024002
:1010F000008C864700C00240001BB70040597307B0
:10110000006CDC0240420F0001480421014B1847EB
:10111000C0010020450E0010114A936F9B0813D2A6
:1011200010665166002905D0FFE7FFE7FFE7516F22
:10113000106F704704B5002801D00020C04300F0B4
:101140009BFA002104BDC046F0B5146E556E576F72
:10115000166FFFF7E5FF1466556657671667F0BD13
:10116000000000D0132370B51D78012D19D014DDB7
:101170001F48FFF75FFE06001E48FFF75BFE1E4C90
:1011800080223100200000F0A5F8022D2DD01B4850
:10119000FFF748FE1A4B186070BD1A4B164CA3643B
:1011A000F5E7184B144C23606360A360E360236190
:1011B0006361A361E36123626362A362E362236309
:1011C0006363A363E36323646364A364E3642365E9
:1011D0006365A365E36523666366A366E3662367C9
:1011E0006367A367E367A364D1E7064BA364CEE715
:1011F0005344000053460000680300204C330000B5
:10120000CC0500200912001007B5604601880A0AC3
:101210000230DF2AFAD1C9B2820804D3028840889A
:101220000004104300E00068014A5050039007BDDD
:1012300068030020132310B512481C78FFF7FAFD4D
:101240000100012C0AD003DD80220F4800F042F893
:101250000E48FFF7E7FD0E4B186010BD0A4C5422F4
:10126000200000F037F80B4B6365A365E365236648
:101270006366A366E36623676367A367E367236226
:10128000E361E5E753460000680400204C330000AA
:10129000CC0500209912001007B5604601880A0AA3
:1012A0000230DF2AFAD1C9B2820804D3028840880A
:1012B0000004104300E00068014A5050039007BD4D
:1012C0006804002001480421014B1847D001002088
:1012D000450E0010014B5B6818470000D00100204C
:1012E00010B5002800D110BD00F022F9FBE7C04680
:1012F00010B5094A0300146884B0002C08D00122FC
:1013000000910648524203A9A047012004B010BD35
:1013100000F05AF90020F9E7B8050020E1120010AA
:1013200000BEFDE710B5FFF7FBFFC04670B5FFF745
:10133000C7FD074D074EB54209D20024013E761B7A
:10134000B60808CD984723000134B342F9D170BDE7
:10135000D4160010D8160010030010B508001100B4
:101360001B68984710BDC046F0B546464F46D64666
:10137000C0B5437D80460E001700002B4BD0002ADD
:1013800032DD274B01259A464B1E0024002099464A
:1013900007E0335D0A2B2CD02B0001340135BB4212
:1013A00013DA002CF5D133780A2BF5D143461B7D97
:1013B000002BF1D14346504602211B689847280074
:1013C0002B0001340135BB42EBDB874204DD434691
:1013D000391A1B6830189847F619013E33780D3BCF
:1013E0005A42534142461375E0BCBA46B146A8463C
:1013F000F0BD4B461B5D0D2BCED0A042DADA434642
:10140000211A1B68301898474346504602211B6832
:1014100098472800D4E70368110030009847E3E7B5
:10142000C8170010F0B5DE4657464E464546E0B5B3
:1014300085B017001C0006000D00FFF79DFB002380
:10144000314A12184B41802109068B4202D30122F6
:101450002E4B52422E4908008A4600F015F90190A1
:101460006B1C03D1300000F0CFF80500002C26D013
:10147000284B9846284B1C68002C15D0002F21D1F2
:10148000264F02E02469002C0ED02368002BF9D0EF
:101490003B68002B01D0A342F4D120002A00310088
:1014A000C0472469002CF0D1019B002B28D12800D3
:1014B00005B0F0BCBB46B246A946A046F0BD184BED
:1014C0009846D7E7154B994602ABDF1D0A239B468A
:1014D00002E02469002CE7D02368002BF9D04B46AA
:1014E0001B68002B01D0A342F3D12A003100200059
:1014F000C0475B460122390020003B70C047E8E747
:10150000504600F0B1F8D2E740420F00FFFFFF7FE6
:10151000E001002069130010B0050020B405002090
:101520005913001010B500F06DF8012010BDC04631
:10153000F0B5CE46474680B583B06B460600DD1D4C
:101540002870FFF719FB00231A4A12184B4180211B
:1015500009068B4202D30122174B52421749080059
:10156000884600F091F8164B81461C68002C14D078
:10157000144F02E02469002C0FD02368002BF9D00F
:101580003B68002B01D0A342F4D1200001222900A6
:10159000FFF7EAFE2469002CEFD14B46002B05D162
:1015A000300003B0C0BCB946B046F0BD404600F0C4
:1015B0005BF8F5E740420F00FFFFFF7FE0010020EE
:1015C000B0050020B405002070B5040000F01CF840
:1015D00001230100050001222000FFF723FF084B33
:1015E0001C68002C06D06368002B05D0984724693E
:1015F000002CF8D1280070BD2469002CF3D1F9E744
:10160000B00500207047C04610B583070AD003001C
:10161000032102E001330B4205D01A78002AF9D1E8
:10162000181A10BD030019680C4A0D4C8A188A4319
:1016300022420FD15968094A04338A188A43224248
:1016400008D15968054A04338A188A432242F1D0E6
:1016500000E001331A78002AFBD1E1E7FFFEFEFE2D
:1016600080808080F8B5C04601B40248844601BC41
:10167000604700BF5D01002001B40248844601BC00
:10168000604700BF8501002001B40248844601BCC8
:10169000604700BFC1000020E90E0010150F0010C8
:1016A00009110010C512001065110010351200104C
:1016B00031100010310F0010510F0010650F001095
:1016C000D10400106D0F001059080010B10E001069
:0816D00025040010FD020010CA
:1016D8000A2A2A2A2050414E4943202A2A2A0A0047
:1016E8000A000000486172647761726520616C616C
:1016F800726D20256420616C726561647920636C69
:1017080061696D65640000004861726420617373EB
:101718006572740052656C6561736500626F6F7401
:10172800325F77323571303830000000302E3100AA
:10173800322E322E30000000736F6C69647363724E
:1017480065656E0062626C696E6B696E675F706971
:101758006E00000041756720313320323032350089
:1017680006005250D3F075421C1700100600525064
:10177800E182887F24170010060052503ABCA91154
:101788003417001006005250ABB3605338170010DE
:1017980006005250BBFF3CB64017001006005250DE
:1017A800861C03024C170010060052505422A29DBA
:1017B8005C17001005005250DE65F468141900101B
:0417C8000D0A000006
:1017CC006817001074170010801700108C17001089
:1017DC0098170010A4170010B0170010BC170010B9
:1017EC00F0B5C646150000B504001E000268EFF304
:1017FC00108172B61368002BFCD0BFF35F8F0423EB
:10180C00E356002B2DDB2268BFF35F8F00201060A6
:10181C0081F31088D0221206127852B290469A4266
:10182C0003D1002080BCB846F0BD00270BE0236834
:10183C00BFF35F8F1F6081F310882800310000F028
:10184C0033F80028EDD12268EFF3108172B61368DB
:10185C00002BFCD0BFF35F8F23797F2BE7D9434656
:10186C0002E0D0231B061B6823712368BFF35F8F34
:10187C0000221A6081F310880120D3E70268EFF38D
:10188C00108172B61368002BFCD0BFF35F8FFF235F
:10189C0003710368BFF35F8F00221A6081F3108815
:1018AC0040BF70477047C04601B40248844601BC33
:1018BC00604700BF590A0010100000000000000033
:1018CC00000000000000000000000000000000000C
:1018DC00E8010020000000000000000000000000F3
:1018EC00503300004C3300005433000052330000DE
:1018FC004D5300004D4300005334000043340000AE
:08190C000000000000000000D3
:04000005100001E9FD
:00000001FF
